{
  "_format": "hh-sol-artifact-1",
  "contractName": "OparatingGrant",
  "sourceName": "contracts/OperatingGrant.sol",
  "abi": [
    {
      "inputs": [
        {
          "internalType": "address",
          "name": "_beneficiary",
          "type": "address"
        },
        {
          "internalType": "address payable",
          "name": "_tellorAddress",
          "type": "address"
        }
      ],
      "stateMutability": "nonpayable",
      "type": "constructor"
    },
    {
      "anonymous": false,
      "inputs": [
        {
          "indexed": false,
          "internalType": "uint256",
          "name": "_amount",
          "type": "uint256"
        }
      ],
      "name": "TokenWithdrawal",
      "type": "event"
    },
    {
      "anonymous": false,
      "inputs": [
        {
          "indexed": false,
          "internalType": "uint256",
          "name": "_amount",
          "type": "uint256"
        }
      ],
      "name": "VestedDeposit",
      "type": "event"
    },
    {
      "stateMutability": "payable",
      "type": "fallback"
    },
    {
      "inputs": [],
      "name": "beneficiary",
      "outputs": [
        {
          "internalType": "address",
          "name": "",
          "type": "address"
        }
      ],
      "stateMutability": "view",
      "type": "function"
    },
    {
      "inputs": [
        {
          "internalType": "uint256",
          "name": "_amount",
          "type": "uint256"
        }
      ],
      "name": "depositTrb",
      "outputs": [],
      "stateMutability": "payable",
      "type": "function"
    },
    {
      "inputs": [],
      "name": "lastReleaseTime",
      "outputs": [
        {
          "internalType": "uint256",
          "name": "",
          "type": "uint256"
        }
      ],
      "stateMutability": "view",
      "type": "function"
    },
    {
      "inputs": [],
      "name": "tellor",
      "outputs": [
        {
          "internalType": "contract ITellor",
          "name": "",
          "type": "address"
        }
      ],
      "stateMutability": "view",
      "type": "function"
    },
    {
      "inputs": [],
      "name": "tellorAddress",
      "outputs": [
        {
          "internalType": "address",
          "name": "",
          "type": "address"
        }
      ],
      "stateMutability": "view",
      "type": "function"
    },
    {
      "inputs": [
        {
          "internalType": "address",
          "name": "_newBeneficiary",
          "type": "address"
        }
      ],
      "name": "updateBeneficiary",
      "outputs": [],
      "stateMutability": "nonpayable",
      "type": "function"
    },
    {
      "inputs": [
        {
          "internalType": "uint256",
          "name": "_amount",
          "type": "uint256"
        }
      ],
      "name": "withdrawTrb",
      "outputs": [],
      "stateMutability": "nonpayable",
      "type": "function"
    }
  ],
  "bytecode": "0x608060405234801561001057600080fd5b50604051610afe380380610afe833981810160405281019061003291906100ec565b81600160006101000a81548173ffffffffffffffffffffffffffffffffffffffff021916908373ffffffffffffffffffffffffffffffffffffffff1602179055504260008190555080600360006101000a81548173ffffffffffffffffffffffffffffffffffffffff021916908373ffffffffffffffffffffffffffffffffffffffff160217905550505061019a565b6000815190506100d18161016c565b92915050565b6000815190506100e681610183565b92915050565b600080604083850312156100ff57600080fd5b600061010d858286016100c2565b925050602061011e858286016100d7565b9150509250929050565b60006101338261014c565b9050919050565b60006101458261014c565b9050919050565b600073ffffffffffffffffffffffffffffffffffffffff82169050919050565b61017581610128565b811461018057600080fd5b50565b61018c8161013a565b811461019757600080fd5b50565b610955806101a96000396000f3fe6080604052600436106100745760003560e01c806338af3eed1161004e57806338af3eed146100f65780635ea41ad014610121578063b2d852981461013d578063dfaf734a1461016657610075565b80630aaffd2a146100775780631959ad5b146100a05780633347c8fe146100cb57610075565b5b005b34801561008357600080fd5b5061009e60048036038101906100999190610660565b610191565b005b3480156100ac57600080fd5b506100b561022f565b6040516100c29190610775565b60405180910390f35b3480156100d757600080fd5b506100e0610255565b6040516100ed9190610731565b60405180910390f35b34801561010257600080fd5b5061010b61027b565b6040516101189190610731565b60405180910390f35b61013b600480360381019061013691906106b2565b6102a1565b005b34801561014957600080fd5b50610164600480360381019061015f91906106b2565b6103ad565b005b34801561017257600080fd5b5061017b610606565b6040516101889190610790565b60405180910390f35b600160009054906101000a900473ffffffffffffffffffffffffffffffffffffffff1673ffffffffffffffffffffffffffffffffffffffff163373ffffffffffffffffffffffffffffffffffffffff16146101eb57600080fd5b80600160006101000a81548173ffffffffffffffffffffffffffffffffffffffff021916908373ffffffffffffffffffffffffffffffffffffffff16021790555050565b600360009054906101000a900473ffffffffffffffffffffffffffffffffffffffff1681565b600260009054906101000a900473ffffffffffffffffffffffffffffffffffffffff1681565b600160009054906101000a900473ffffffffffffffffffffffffffffffffffffffff1681565b600360009054906101000a900473ffffffffffffffffffffffffffffffffffffffff1673ffffffffffffffffffffffffffffffffffffffff1663a9059cbb600160009054906101000a900473ffffffffffffffffffffffffffffffffffffffff16836040518363ffffffff1660e01b815260040161032092919061074c565b602060405180830381600087803b15801561033a57600080fd5b505af115801561034e573d6000803e3d6000fd5b505050506040513d601f19601f820116820180604052508101906103729190610689565b507ffeb68416a9d6286c539792f086581b0fc9d0bb6db80fa17c33d2e768c2a825a0816040516103a29190610790565b60405180910390a150565b600160009054906101000a900473ffffffffffffffffffffffffffffffffffffffff1673ffffffffffffffffffffffffffffffffffffffff163373ffffffffffffffffffffffffffffffffffffffff161461040757600080fd5b6000600360009054906101000a900473ffffffffffffffffffffffffffffffffffffffff1673ffffffffffffffffffffffffffffffffffffffff166370a08231306040518263ffffffff1660e01b81526004016104649190610731565b602060405180830381600087803b15801561047e57600080fd5b505af1158015610492573d6000803e3d6000fd5b505050506040513d601f19601f820116820180604052508101906104b691906106db565b9050808211156104c557600080fd5b600061012c600054426104d891906107dc565b6104e291906107ab565b9050808311156104f157600080fd5b42600081905550600360009054906101000a900473ffffffffffffffffffffffffffffffffffffffff1673ffffffffffffffffffffffffffffffffffffffff1663a9059cbb600160009054906101000a900473ffffffffffffffffffffffffffffffffffffffff16856040518363ffffffff1660e01b815260040161057792919061074c565b602060405180830381600087803b15801561059157600080fd5b505af11580156105a5573d6000803e3d6000fd5b505050506040513d601f19601f820116820180604052508101906105c99190610689565b507f0e266e8f38544aa1480d73762386eb10df55b1b8453d935762e891c44b69a1e6836040516105f99190610790565b60405180910390a1505050565b60005481565b60008135905061061b816108da565b92915050565b600081519050610630816108f1565b92915050565b60008135905061064581610908565b92915050565b60008151905061065a81610908565b92915050565b60006020828403121561067257600080fd5b60006106808482850161060c565b91505092915050565b60006020828403121561069b57600080fd5b60006106a984828501610621565b91505092915050565b6000602082840312156106c457600080fd5b60006106d284828501610636565b91505092915050565b6000602082840312156106ed57600080fd5b60006106fb8482850161064b565b91505092915050565b61070d81610810565b82525050565b61071c81610858565b82525050565b61072b8161084e565b82525050565b60006020820190506107466000830184610704565b92915050565b60006040820190506107616000830185610704565b61076e6020830184610722565b9392505050565b600060208201905061078a6000830184610713565b92915050565b60006020820190506107a56000830184610722565b92915050565b60006107b68261084e565b91506107c18361084e565b9250826107d1576107d06108ab565b5b828204905092915050565b60006107e78261084e565b91506107f28361084e565b9250828210156108055761080461087c565b5b828203905092915050565b600061081b8261082e565b9050919050565b60008115159050919050565b600073ffffffffffffffffffffffffffffffffffffffff82169050919050565b6000819050919050565b60006108638261086a565b9050919050565b60006108758261082e565b9050919050565b7f4e487b7100000000000000000000000000000000000000000000000000000000600052601160045260246000fd5b7f4e487b7100000000000000000000000000000000000000000000000000000000600052601260045260246000fd5b6108e381610810565b81146108ee57600080fd5b50565b6108fa81610822565b811461090557600080fd5b50565b6109118161084e565b811461091c57600080fd5b5056fea264697066735822122091e62ba4412a9659867c061561b4b29843ecd2ddae70c611dec79eb9a365122b64736f6c63430008030033",
  "linkReferences": {},
  "deployedLinkReferences": {}
}